:100000000C94C0010C948A2F0C94632F0C94F4016F
:100010000C94F4010C94F4010C94F4010C94F4018C
:100020000C94F4010C94F4010C94F4010C94F4017C
:100030000C94F4010C94F4010C94F4010C94F4016C
:100040000C94192F0C94F4010C94271C0C94011C93
:100050000C94F4010C94F4010C94F4010C94F4014C
:100060000C947B0B0C94F4016E0D51108A109B10B4
:10007000A910AC13AC13AC13AC13AC13AC13AC138E
:10008000AC13AC13AC13AC13AC13C410AC13E6102C
:100090001E113211431157117B11AC13AC138D118A
:1000A000A211AC13AC13AC13AC13AC13C811AC134A
:1000B000DC11AC1338126612AC13AC137212881236
:1000C000AC13AC13AC13AC13AC13AC13AC13AC1338
:1000D000AC13AC13AC13AC138E12AC139B12AA125C
:1000E000CE12E112F3120713AC13AC13AC13AC1322
:1000F000AC13AC13AC130A13AC13AC131F133A13A9
:10010000691394134578697400332E302E310052F0
:10011000657374617274204E6F7700536574204468
:100120006174652F54696D653F004D6F6E74680092
:10013000446179005965617200486F7572004D69BC
:100140006E75746500537461727420486F75720027
:1001500053746F7020486F7572005374617274200D
:100160004D696E0053746F70204D696E00342E38E7
:100170002E30005665722E20004F70656E20455659
:10018000534500000E0A1F1B1B0E00000E0C1F0320
:10019000060C0800080C0E0C08000000000E0E0EE5
:1001A000000000000E1517110E0000537663204C5E
:1001B0006576656C3A204C3200537663204C657648
:1001C000656C3A204C31004175746F20446574654C
:1001D00063740053656C66205465737400506F77C8
:1001E0006572204F6E005445535420444953414298
:1001F0004C454400526573657474696E672E2E2EEB
:100200000020202020304100536C656570696E67C6
:1002100000474643490054455354204641494C4504
:10022000440044697361626C656400535455434BE8
:100230002052454C4159004E4F2047524F554E4495
:10024000004F5645522054454D5045524154555249
:10025000450047464349204641554C5400534552BA
:100260005649434520524551554952454400444959
:100270004F444520434845434B0056454E54205279
:100280004551554952454400455653452045525223
:100290004F52004368617267696E6700436F6E6E0C
:1002A0006563746564005265616479001F1C1F1EDC
:1002B0001F1E1F1F1E1F1E1F536574757000536580
:1002C0007474696E67730054696D65204C696D695B
:1002D0007400436861726765204C696D69740044FD
:1002E000656C61792054696D657200446174652F95
:1002F00054696D650052657374617274005374754E
:10030000636B2052656C61792043686B0047726FA4
:10031000756E6420436865636B0056656E74205289
:100320006571276420436865636B0054656D706573
:100330007261747572652043686B004746492053AB
:10034000656C662054657374004261636B6C696709
:10035000687420547970650044696F64652043684F
:1003600065636B004D61782043757272656E740031
:1003700053657276696365204C6576656C00A134BF
:1003800011241FBECFEFD8E0DEBFCDBF14BE0FB625
:10039000F894A89580916000886180936000109225
:1003A00060000FBE13E0A0E0B1E0EAE1F5E702C0B3
:1003B00005900D92A03BB107D9F726E0A0EBB3E082
:1003C00001C01D92A23EB207E1F711E0C0ECD1E0FE
:1003D00004C02197FE010E940B37CF3BD107C9F71C
:1003E0000E94B12F0C948B3A0C940000DC011496FF
:1003F000EC91149715968C911597E81740F4F0E05E
:10040000EE0FFF1FEC5AFE4F8081918108951496E4
:100410001C9280E090E0089508950895FC0110AECC
:10042000128212A20895FC0110AE128212A2089547
:100430000895E0913E0480913D04E81730F4F0E027
:10044000EE59FB4F808190E008958FEF9FEF089564
:1004500090913E0480913D04981750F4E92FF0E00C
:10046000EE59FB4F208130E09F5F90933E0402C025
:100470002FEF3FEFC901089580913D0490E0209156
:100480003E04821B91090895CF92DF92EF92FF9272
:100490000F931F93CF93DF937C018A0180913F04D8
:1004A000882389F0EB016B01C40ED51ECC15DD0548
:1004B000F1F06991D701ED91FC910190F081E02D6F
:1004C000C7010995F3CF842F413288F49091A80495
:1004D000943069F440930604FB0126EE33E0D90121
:1004E0009A2F921B981718F491919D93F9CFC801F8
:1004F000DF91CF911F910F91FF90EF90DF90CF9000
:10050000089520913F042223C9F0209161042032F4
:1005100040F021E030E0FC013383228380E090E072
:10052000089580914004E82FF0E0EF5BFB4F60837B
:100530008F5F809340048093610409C08091A80478
:10054000843029F481E0809306046093E60381E01F
:1005500090E0089585ED8093BC008091BC0084FDFF
:10056000FCCF1092A8040895CF93DF93EC01809103
:10057000960680FD40C086E08D8380E18E838CE905
:1005800092E09F938F9382EA92E09F938F9386E10C
:1005900094E09F938F930E944A3766E174E080E075
:1005A00090E00E94752D9091B1069C838D810F90F3
:1005B0000F900F900F900F900F90981708F48C8366
:1005C0008C811F928F9381EB92E09F938F9386E1B2
:1005D00094E09F938F930E944A370F900F900F9053
:1005E0000F900F900F9066E174E081E090E0DF9152
:1005F000CF910C94752D8AE08D8380E58E838FE9F1
:1006000092E0BFCFCF93DF93EC016A817B8180E0E2
:1006100090E00E94AA2DE0919606F091970683E063
:10062000F695E7958A95E1F7E170EC83F0E0EE0F3F
:10063000FF1FE45EFE4F81818F9380818F9386EB55
:1006400092E09F938F9386E194E09F938F930E9413
:100650004A370F900F900F900F900F900F9066E118
:1006600074E081E090E0DF91CF910C94752DCF93F1
:10067000DF93EC016A817B8180E090E00E94AA2DEB
:10068000E0919606F0919706F695E795F695E79531
:10069000E170EC83F0E0EE0FFF1FE45EFE4F81811E
:1006A0008F9380818F9386EB92E09F938F9386E167
:1006B00094E09F938F930E944A370F900F900F9072
:1006C0000F900F900F9066E174E081E090E0DF9171
:1006D000CF910C94752DCF93DF93EC016A817B81D0
:1006E00080E090E00E94AA2DE0919706E2FBEE27C1
:1006F000E0F9EC83F0E0EE0FFF1FE45EFE4F818136
:100700008F9380818F9386EB92E09F938F9386E106
:1007100094E09F938F930E944A370F900F900F9011
:100720000F900F900F9066E174E081E090E0DF9110
:10073000CF910C94752DCF93DF93EC016A817B816F
:1007400080E090E00E94AA2DE0919706E695E17086
:10075000EC83F0E0EE0FFF1FE45EFE4F81818F938C
:1007600080818F9386EB92E09F938F9386E194E054
:100770009F938F930E944A370F900F900F900F9086
:100780000F900F9066E174E081E090E0DF91CF91EF
:100790000C94752DCF93DF93EC016A817B8180E00F
:1007A00090E00E94AA2DE0919606F0919706F695AA
:1007B000E795E170EC83F0E0EE0FFF1FE45EFE4F83
:1007C00081818F9380818F9386EB92E09F938F93AB
:1007D00086E194E09F938F930E944A370F900F9089
:1007E0000F900F900F900F9066E174E081E090E021
:1007F000DF91CF910C94752DCF93DF93EC016A813B
:100800007B8180E090E00E94AA2DE1E08091950537
:10081000813009F4E0E0EC83F0E0EE0FFF1FE45FCD
:10082000FE4F81818F9380818F9386EB92E09F931F
:100830008F9386E194E09F938F930E944A370F90A5
:100840000F900F900F900F900F9066E174E081E091
:1008500090E0DF91CF910C94752DFC0184818F5F26
:1008600084839581981708F41482E481E91758F479
:10087000F0E0EE0FFF1FEC5AFE4F0190F081E02DEB
:100880006281738102C064E071E081E090E00C94C9
:10089000AA2DFC0114826281738180E090E00E94A5
:1008A000AA2D6091D9057091DA0581E090E00C9451
:1008B000AA2DCF93DF93DC0114968C9114978F5F50
:1008C00014968C93149715969C911597981718F475
:1008D00014961C92149716968C9116971496EC9178
:1008E00014978823A1F0CE2FD0E0CC0FDD1FCC5879
:1008F000DE4F2881398145E02B39340729F4EF5F39
:100900001496EC931497EACF26593540C1F3E917B2
:1009100058F4F0E0EE0FFF1FEC58FE4F0190F0810D
:10092000E02D6281738102C064E071E081E090E0BB
:10093000DF91CF910C94AA2DCF93DF93EC011C8211
:100940009E81992399F08C81E82FF0E0EE0FFF1F34
:10095000EC58FE4F2081318145E02B39340719F4E2
:100960008F5F8C83EECF26593540D1F36A817B812E
:1009700080E090E00E94AA2DEC81F0E0EE0FFF1FD6
:10098000EC58FE4F0190F081E02D6281738181E08F
:1009900090E0DF91CF910C94AA2DCF93DF93EC01DF
:1009A0006A817B8180E090E00E94AA2D809196066A
:1009B00085FD02C01C8206C080FD02C081E001C02E
:1009C00082E08C830E94D52D4AEB52E061E070E01A
:1009D00080E090E00E94652DEC81F0E0EE0FFF1FBB
:1009E000E05FFE4F6081718183E695E0DF91CF91FA
:1009F0000C94FF1BCF93DF93EC014AEB52E061E0D4
:100A000070E080E090E00E94652D6C8170E080E0F5
:100A100090E00E94DA2A64EB72E083E695E00E949F
:100A2000FF1B64EF71E080E090E00E94D32E6C81A8
:100A30008091960680FD02C021E001C022E081E0A5
:100A400090E0213011F480E090E00E94293A40E0EB
:100A500060E08C810E947D2180E196E0DF91CF9162
:100A60000895CF93DF93EC014AEB52E061E070E030
:100A700080E090E00E94652DEC81F0E0EE0FFF1F1A
:100A8000E45FFE4F6081718183E695E00E94FF1B69
:100A900081E09C81911180E00E945C2281E09C8138
:100AA000911180E08093950580E196E0DF91CF91F0
:100AB000089589EA94E00C946A2E89EA94E00C94F3
:100AC000EB2D89EA94E00C940D2E80916A06882320
:100AD00021F081E0809369060895809198068068EE
:100AE000809398060E94BD2B80E090E00E94EE2B40
:100AF00081E0809368060895BF92CF92DF92EF92D3
:100B0000FF920F931F93CF93DF93B42E109237046D
:100B1000C7E3D4E02AE0C22ED12CE12CF12C8E01C7
:100B2000A70196010E94E936605D6A93B901CA0186
:100B3000611571058105910599F73C2F301B3B0D1F
:100B4000131674F3CE01DF91CF911F910F91FF9097
:100B5000EF90DF90CF90BF900895CF93C091A406FF
:100B6000882321F0809107048C1739F11F92CF93CD
:100B70001F9284E28F938CEB92E09F938F9386E198
:100B800094E09F938F930E944A370E940F21E09137
:100B90001D06F0911E060284F385E02D66E174E0E7
:100BA0008DE196E00995C09307048DB79EB708962E
:100BB0000FB6F8949EBF0FBE8DBFCF9108950F93CF
:100BC0001F93CF93DF93EC0160E070E0CB01E991DC
:100BD000EE23A9F0AAE0B0E09B01AC010E9411371E
:100BE0000E2E000CFF0BAF01405351098A01550F27
:100BF000220B330B600F711F821F931FE8CFDF9111
:100C0000CF911F910F910895FC0140E050E090E0DA
:100C100021912223B9F04130510511F49295907F32
:100C200080ED820F8A3010F4980F0CC08FEB820F8A
:100C3000863010F4275305C08FE9820F863050F4B8
:100C40002755920F4130510519F041E050E0E0CFB7
:100C5000892F089580E008956115710579F0FB01F1
:100C600001900020E9F73197AF01461B570BDC01DB
:100C7000ED91FC910280F381E02D099480E090E0F9
:100C8000089589EA94E00C942C06FC018081877019
:100C9000806480937C0080917A00806480937A00E5
:100CA00080917A0086FDFCCF8091780020917900B8
:100CB00090E0922B0895DC016115710561F0ED91D2
:100CC000FC91119712969C9112976130710569F40D
:100CD0008281982B9283ED91FC91119791811296CC
:100CE0008C9180958923818308958181982B9183AC
:100CF0000895CF92DF92EF92FF920F931F930E947D
:100D00000D2FC090DE03D090DF03E090E003F09061
:100D1000E1038B019C010C191D092E093F098091EB
:100D2000E2039091E303A091E403B091E503083E50
:100D3000134021053105D0F00196A11DB11D80930E
:100D4000E2039093E303A093E403B093E503B701B8
:100D5000A60148515C4F6F4F7F4F4093DE03509385
:100D6000DF036093E0037093E103C9CF4091DA039E
:100D70005091DB036091DC037091DD0384179507CC
:100D8000A607B70708F441C0E091D803F091D90352
:100D90003097D9F10995611571058105910539F1F2
:100DA0006093E2037093E3038093E4039093E5037D
:100DB000DC01CB01845D9E4FAF4FBF4F8093DA03C0
:100DC0009093DB03A093DC03B093DD0382E090E01B
:100DD0009093D7038093D6030E940D2F6093DE0378
:100DE0007093DF038093E0039093E1030EC081E0F2
:100DF00090E02091D6033091D703232B11F480E0AB
:100E000090E09093D7038093D6036091E2037091B2
:100E1000E3038091E4039091E5031F910F91FF900C
:100E2000EF90DF90CF9008951F93CF93DF93CDB7CE
:100E3000DEB72B970FB6F894DEBF0FBECDBF88E6A6
:100E40000E94C02C60E087E596E00E9481020E942B
:100E5000672C67E070E088E690E00E94CB2D87E584
:100E600096E00E9428028F77982F92959F701AEF34
:100E7000782F919F700D112487E596E07B870E9463
:100E800028029C01332794E0359527959A95E1F740
:100E9000682F129F600D112487E596E06A870E94F3
:100EA00028029C01332744E0359527954A95E1F7C0
:100EB000582F129F500D112487E596E059870E9404
:100EC000280287E596E00E9428029C01332754E01F
:100ED000359527955A95E1F7482F129F400D11241B
:100EE00087E596E048870E9428029C01332764E04A
:100EF000359527956A95E1F7382F129F300D11240B
:100F000087E596E03F830E942802FC01FF2774E0FA
:100F1000F595E7957A95E1F7282F1E9F200D11246E
:100F20003F81488559856A857B8580E090E02B96D6
:100F30000FB6F894DEBF0FBECDBFDF91CF911F91EA
:100F400008950F931F93CF938C0188E60E94C02CC5
:100F500060E087E596E00E948102F8012581CAE001
:100F6000822F6C2F0E94B536682F660F860F682F70
:100F7000660F620F87E596E00E948102F8012481E6
:100F8000822F6C2F0E94B536682F660F860F682F50
:100F9000660F620F87E596E00E948102F8012381C7
:100FA000822F6C2F0E94B536682F660F860F682F30
:100FB000660F620F87E596E00E94810260E087E598
:100FC00096E00E948102F8012281822F6C2F0E94FC
:100FD000B536682F660F860F682F660F620F87E59C
:100FE00096E00E948102F8012181822F6C2F0E94DD
:100FF000B536682F660F860F682F660F620F87E57C
:1010000096E00E948102F8012081822F6C2F0E94BD
:10101000B536682F660F860F682F660F620F87E55B
:1010200096E00E94810260E087E596E00E948102DE
:10103000CF911F910F910C94672C682F87E596E054
:101040000C948102CF93DF931F92CDB7DEB7FC01E2
:101050008185806269830E94C02C83E10E941D0803
:101060006981862F0E941D080E94672C8111FCCF88
:101070000F90DF91CF910895FF920F931F93CF931D
:10108000DF9300D0CDB7DEB78C01F62EFC0195853D
:1010900064FD9061F5FC9860F6FC9460F7FC92604A
:1010A000292F442311F0206A01C02062622FC80159
:1010B00029834A830E9422082981622F6F7DC801FB
:1010C0000E942208F80195854A81F0FC9061F1FCAC
:1010D0009860F2FC9460F3FC9260292F442311F095
:1010E000206A01C02062622FC80129830E94220861
:1010F0002981622F6F7DC8010F900F90DF91CF91F2
:101100001F910F91FF900C942208FC01238522234C
:1011100019F041E00E943C0881E090E00895CF93EF
:10112000DF93CDB7DEB728970FB6F894DEBF0FBEBA
:10113000CDBF9C01FC018385882321F188E0E4E098
:10114000F1E0DE01119601900D928A95E1F7F90127
:101150008781841710F44FEF480FFE013196E40F9A
:10116000F11DE40FF11D9081690F606840E0C90135
:1011700028960FB6F894DEBF0FBECDBFDF91CF919A
:101180000C943C0828960FB6F894DEBF0FBECDBF76
:10119000DF91CF910895CF93DF93EC018C818F5F26
:1011A000823010F48C8301C01C820E94D52D41E056
:1011B00060E083E695E00E948F08909196068C810E
:1011C00092FD03C0882319F008C0882331F06AEB30
:1011D00072E083E695E00E94FF1BEC81F0E0EE0FE9
:1011E000FF1FE45EFE4F6081718183E695E0DF9131
:1011F000CF910C94FF1BCF93DF93EC018C818F5F19
:10120000823010F48C8301C01C820E94D52D41E0F5
:1012100060E083E695E00E948F0820919606309169
:1012200097068C8132FD03C0882319F008C08823FB
:1012300031F06AEB72E083E695E00E94FF1BEC81DF
:10124000F0E0EE0FFF1FE45EFE4F6081718183E6E8
:1012500095E0DF91CF910C94FF1BCF93DF93EC01CE
:101260008C818F5F823010F48C8301C01C820E94BD
:10127000D52D41E060E083E695E00E948F08209143
:101280009606309197068C8131FD03C0882319F0B2
:1012900008C0882331F06AEB72E083E695E00E9493
:1012A000FF1BEC81F0E0EE0FFF1FE45EFE4F60815C
:1012B000718183E695E0DF91CF910C94FF1BCF9372
:1012C000DF93EC018C818F5F823010F48C8301C03E
:1012D0001C820E94D52D41E060E083E695E00E94EB
:1012E0008F08909196068C8191FD03C0882319F098
:1012F00008C0882331F06AEB72E083E695E00E9433
:10130000FF1BEC81F0E0EE0FFF1FE45EFE4F6081FB
:10131000718183E695E0DF91CF910C94FF1BCF9311
:10132000DF93EC01909196068C8190FD02C08F5F57
:1013300003C08E34E0F78E5F8C839C818E81891789
:1013400010F48D818C830E94D52D41E060E083E60E
:1013500095E00E948F089091B1068C81981306C089
:101360006AEB72E083E695E00E94FF1B6C8170E0FF
:1013700080E090E00E94DA2A64EB72E083E695E078
:10138000DF91CF910C94FF1BCF93DF93EC018C8105
:101390008F5F833010F48C8301C01C820E94D52D96
:1013A00041E060E083E695E00E948F089091960608
:1013B0008C8195FD03C0882341F00DC090FD02C0D3
:1013C00091E001C092E0981306C06AEB72E083E6F8
:1013D00095E00E94FF1BEC81F0E0EE0FFF1FE05F45
:1013E000FE4F6081718183E695E0DF91CF910C948F
:1013F000FF1BCF93DF93EC018C818F5F823010F461
:101400008C8301C01C820E94D52D41E060E083E600
:1014100095E00E948F086AEB72E083E695E00E94F7
:10142000FF1BEC81F0E0EE0FFF1FE45FFE4F6081D9
:10143000718183E695E0DF91CF910C94FF1BFC0155
:101440002385222341F040E061E00E943C088BE3C9
:101450009FE10197F1F70895DC011496EC91149740
:1014600015968C91E81740F4F0E0EE0FFF1FEC5852
:10147000FE4F80819181089583E695E00E941F0AC6
:1014800080E090E00895BC0182E090E00C943F3A47
:10149000CF93DF93EC014AEB52E061E070E080E033
:1014A00090E00E94652DEC81F0E0EE0FFF1FE45EFE
:1014B000FE4F6081718183E695E00E94FF1B2C81C5
:1014C0008091960690919706211102C08B7F01C0F2
:1014D00084609093970680939606809196069091EB
:1014E00097060E94430A64EF71E080E090E00E945A
:1014F000D32E80E196E0DF91CF910895CF93DF93D3
:10150000EC014AEB52E061E070E080E090E00E9484
:10151000652DEC81F0E0EE0FFF1FE45EFE4F608171
:10152000718183E695E00E94FF1B2C8180919606D5
:1015300090919706211102C09B7F01C09460909307
:1015400097068093960680919606909197060E9442
:10155000430A64EF71E080E090E00E94D32E80E1C6
:1015600096E0DF91CF910895CF93DF93EC014AEBA2
:1015700052E061E070E080E090E00E94652DEC8137
:10158000F0E0EE0FFF1FE45EFE4F6081718183E6A5
:1015900095E00E94FF1B2C81809196069091970602
:1015A000211102C09D7F01C09260909397068093A5
:1015B000960680919606909197060E94430A64EFE2
:1015C00071E080E090E00E94D32E80E196E0DF9110
:1015D000CF910895CF93DF93EC014AEB52E061E0A5
:1015E00070E080E090E00E94652DEC81F0E0EE0F6D
:1015F000FF1FE45EFE4F6081718183E695E00E94EB
:10160000FF1B2C818091960690919706211102C0B4
:101610008D7F01C08260909397068093960680919B
:101620009606909197060E94430A64EF71E080E06D
:1016300090E00E94D32E80E196E0DF91CF91089553
:10164000CF93DF93EC018C81811107C02091960626
:1016500030919706C9018F7D09C060E00E94F0219A
:101660002091960630919706C90180629093970663
:10167000809396060E94430A4AEB52E061E070E0D4
:1016800080E090E00E94652DEC81F0E0EE0FFF1FFE
:10169000E05FFE4F6081718183E695E00E94FF1B51
:1016A000609196067091970682E090E00E943F3A22
:1016B00064EF71E080E090E00E94D32E80E196E03C
:1016C000DF91CF910895DC01ED91FC91119792810A
:1016D00012968C91892B8283089561110C94630B6F
:1016E000DC01ED91FC911197228112968C918095ED
:1016F0008223828308951F920F920FB60F921124B6
:101700002F933F934F935F936F937F938F939F9309
:10171000AF93BF93EF93FF938091B900887F80369A
:1017200009F49CC068F5883209F45BC090F48031FC
:1017300009F454C038F4882309F4F3C0883009F45C
:101740004DC0F3C0883109F44CC0803209F45DC04B
:10175000ECC0803409F468C048F4803309F455C003
:10176000883309F0E2C08093A604D5C0803509F41F
:101770004FC0883509F45DC0883409F0D6C0D3C0A5
:10178000883909F4C4C0A8F4883709F467C038F46C
:10179000883609F463C0803709F460C0C6C0883851
:1017A00009F4B5C0803909F45FC0803809F0BDC0C4
:1017B0005BC0803B09F483C038F4803A09F466C00A
:1017C000883A09F47CC0B1C0803C09F4A4C0883CCC
:1017D00009F4A1C0883B09F487C0A7C08091A30485
:1017E00010C09091A5048091A404981770F5E09121
:1017F000A50481E08E0F8093A504F0E0EE57FB4F27
:1018000080818093BB0085EC83C08093A6048BC04D
:10181000E091A50481E08E0F8093A5048091BB0028
:10182000F0E0EE57FB4F80839091A5048091A404D3
:101830006BC0E091A50481E08E0F8093A504809198
:10184000BB00F0E0EE57FB4F80838091A70481112D
:101850006AC081E08093A20484EA5EC083E0809342
:10186000A8041092D503CFCF8091D503803208F021
:101870004EC0E091D50381E08E0F8093D503809117
:10188000BB00F0E0EB54FC4F8083BDCF8091D503CB
:10189000803230F4E091D503F0E0EB54FC4F10823D
:1018A0000E94AA026091D50370E0E091B303F09129
:1018B000B40385EB93E009951092D5032CC084E026
:1018C0008093A8041092B20310920604E091B00332
:1018D000F091B103099580910604811105C081E062
:1018E000809306041092E603E091B20381E08E0F2C
:1018F0008093B203F0E0EA51FC4F80818093BB00FB
:101900009091B20380910604981708F47CCF85E883
:101910008093BC000AC085EC8093BC001092A804A0
:1019200004C01092A6040E94AA02FF91EF91BF91F9
:10193000AF919F918F917F916F915F914F913F9167
:101940002F910F900FBE0F901F9018952F923F92DE
:101950007F928F929F92AF92BF92CF92DF92EF923F
:10196000FF920F931F93CF93DF93CDB7DEB72897E6
:101970000FB6F894DEBF0FBECDBFE0911D06F0910B
:101980001E060190F081E02D8DE196E009956C0135
:10199000892B31F5A8958091A406845001E0873009
:1019A00008F000E080916E05882309F4B5C08091AD
:1019B0006C0580620E94C02C82E10E941D080E947A
:1019C000672C80916C05806261E070E090E00E947D
:1019D000CB2D87E596E00E94280280958F719CC0F0
:1019E000E12CF12C09E113E06AEE262E62E0362E9E
:1019F000EC14FD047CF6E0911D06F0911E060280B9
:101A0000F381E02D8DE196E00995482F80915506F0
:101A1000882369F0E0911D06F0911E060084F1858F
:101A2000E02D642F8DE196E04F8309954F8144327C
:101A300031F440931F0681E080933F0669C0909186
:101A40001F06943209F064C020913F0620320CF04A
:101A50005BC081E0820F022E000C330B80933F06A7
:101A6000F901E35EF94F4D30B9F5128220E236E01C
:101A7000309341062093400681E080935406809184
:101A8000200624E2280FB82EB926E1E2F6E03081E4
:101A9000332309F446C2CF010196303299F4205E17
:101AA000B3261082A091540631E03A0F30935406C9
:101AB000FC01AA0FBB0BA35EB94F94969C938E9327
:101AC0009397E5CF3A3209F41FC23E3509F4B2C606
:101AD000230FFC01B326DBCF42831AC0809154064A
:101AE000823009F039C6E0914206F091430681E068
:101AF0009081903309F480E00E945C229C018091E7
:101B00003F068F3F09F02BC610921F0610923F062A
:101B10003FEFE31AF30A6CCF982F917080FD12C04B
:101B200080918A05823071F440918B0550918C052B
:101B300060918D0570918E05452B462B472B11F436
:101B400010928A0510918A05112381F0113009F055
:101B50008AC040918B0550918C0560918D057091E4
:101B60008E05452B462B472BF1F548C09923E9F10B
:101B700080918B0590918C05A0918D05B0918E057B
:101B8000892B8A2B8B2B51F40E940D2F60938B0590
:101B900070938C0580938D0590938E050E940D2F78
:101BA000C0908B05D0908C05E0908D05F0908E054F
:101BB000DC01CB018C199D09AE09BF0920918A0572
:101BC000211106C0C297A105B10538F181E008C016
:101BD000213019F5843F9140A105B105F0F082E074
:101BE00080938A051AC09111D9CF10928B0510925B
:101BF0008C0510928D0510928E050FC0992389F0E7
:101C000080918F0590919005A0919105B0919205DA
:101C1000892B8A2B8B2B09F0BAC510918A051130BC
:101C200021F580918B0590918C05A0918D05B09147
:101C30008E05892B8A2B8B2B09F0C9C010928A053F
:101C40008091930590919405009711F0DC016AC092
:101C500001112BC08091A4068E5F823008F451C11F
:101C60000E943021B4C09111CBCF123009F0AFC027
:101C700080918B0590918C05A0918D05B0918E057A
:101C80000097A105B10509F4A2C080938F05909338
:101C90009005A0939105B093920510928B05109238
:101CA0008C0510928D0510928E0580919305909170
:101CB0009405009709F45CC0DC01ED91FC9104806F
:101CC000F581E02D099590939405809393050097F5
:101CD00079F1B6E086319B0721F0E6E080319E077E
:101CE00021F4DC0114961C9101C010E0DC01ED919F
:101CF000FC910190F081E02D0995809193059091E0
:101D00009405B6E086319B0729F0E6E080319E0716
:101D100009F05DC0112309F45AC01150DC0114967A
:101D20001C931497ED91FC910280F381E02D4EC03D
:101D3000002319F00E942D224AC080915205811182
:101D400002C00E94CA2C80917105982F9F7B209120
:101D50009505213011F48E7B02C0892F816080931C
:101D6000710581E00E94591C81E00E94591C2FC01E
:101D70008091A406825091E0823008F490E0909324
:101D80001C0680917105809581708093950587E090
:101D90000E94202D8091710580648093710500233D
:101DA00019F080E196E004C00E94302186E196E0BF
:101DB0009093940580939305809193059091940559
:101DC000DC01ED91FC910190F081E02D09950E94DC
:101DD0000D2F6B017C018091470590914805A091E2
:101DE0004905B0914A05A7019601281B390B4A0BFA
:101DF0005B0BDA01C901883E9340A105B10508F4E7
:101E00001BC580914B058823A9F085E00E940C2317
:101E10009C013F7194FD306F4AE0429FC001439F97
:101E2000900D112497FD0F9654E0959587955A953E
:101E3000E1F702C080E090E090934D0580934C055F
:101E400088E60E94C02C6EE087E596E00E94810241
:101E500060E287E596E00E9481020E94672C88E696
:101E60000E94C02C61E187E596E00E9481020E94F9
:101E7000672C62E070E088E690E00E94CB2D87E559
:101E800096E00E9428028C0187E596E00E942802D5
:101E9000992736E0959587953A95E1F71127000F38
:101EA000111F000F111F802B912B8F3F43E09407D0
:101EB00029F410924F0510924E051AC091FD9E6FA5
:101EC00090934F0580934E0520914E0530914F051C
:101ED0004AE0429FC001439F900D112497FD039655
:101EE000959587959595879590934F0580934E0589
:101EF000C0924705D0924805E0924905F0924A0504
:101F00009BC40E94CA2C63CF31E010822F83388794
:101F10000E94040638852F81313009F07CC4821379
:101F20007DC410925606B0905406EB2DEE0FFF0BB9
:101F3000E55EF94F83A194A151E05B1564F4DC01E7
:101F40002C912A3341F401960E9404068093560690
:101F5000BA94B092540610923F06E0914006F09178
:101F600041068081873409F4A1C2833509F489C010
:101F7000863409F0F1C38181853409F448C044F402
:101F8000823409F1843471F1803309F0E5C30AC069
:101F9000823509F470C0833509F470C0803509F0CA
:101FA000DBC338C080915406823009F0D5C3E0917C
:101FB0004206F0914306908180917105903309F4B7
:101FC000D5C38F7BD4C380915406823009F0C4C33B
:101FD00080914206909143060E94DF05862F0E9461
:101FE000202DB7C38091A4068F3F09F4B2C382E0CD
:101FF00090E00E94EE2B8FEF8093A4060E94BD2BF1
:1020000081E00E94591C81E00E94AD05A2C30E949C
:10201000CA2C9FC38091540684300CF49DC38091D8
:102020004206909143060E94DF054B015C018091BE
:102030004406909145060E94DF05A8E4B6E044E01E
:1020400050E0E0E27E2EFA014F5F5F4F2091540690
:10205000022E000C330BE217F3072CF4ED91FD91E7
:1020600031977082F0CF4091460650914706C401E7
:102070000E94652D6EC30E942D226BC30E943021E9
:1020800068C3E1818E2FEE0F990BAA0BBB0BFC01ED
:10209000F097E732F10508F05FC3EC5CFF4F0C945A
:1020A0000B3780915406873009F056C380914C0657
:1020B00090914D060E94DF05B62E80914A069091C0
:1020C0004B060E94DF05A62E809148069091490696
:1020D0000E94DF05962E80914606909147060E9449
:1020E000DF05862E80914406909145060E94DF050B
:1020F000762E80914206909143060E94DF05698307
:102100007A828B829C82AD82BE82CE0101960E9431
:10211000A1071FC380915406823009F01DC3E091CE
:102120004206F0914306908180919806913309F020
:1021300025C3806124C380915406823009F00CC30A
:1021400080914206909143060E94DF056093CA0683
:10215000DFC080915406823009F0FEC280914206B1
:10216000909143060E94DF0580919806662311F046
:10217000886001C0877F8093980681E00E94712467
:1021800081E00E94591CE5C280915406833009F019
:10219000E3C280914206909143060E94DF0570934E
:1021A000D6066093D50689E090E00E943F3A809180
:1021B0004406909145060E94DF057093D406609313
:1021C000D3068BE090E00E943F3AC3C28091540650
:1021D0009EEF980F923008F0BFC2833009F0D2C250
:1021E000E0914406F09145068EE4808341E08091C1
:1021F0004206909143064F830E94DF05862F4F8150
:1022000061E00E947D219C018091B1061F928F9315
:102210001F930F938FE196E09F938F932F833887BF
:102220000E944A3781E080933F060F900F900F90F5
:102230000F900F900F902F81388561CC80915406BC
:10224000823009F089C2E0914206F0914306208174
:102250008091960690919706203311F08D7F1BC1D7
:10226000826019C180915406823009F075C2E091F4
:102270004206F091430681E09081903309F480E0BA
:102280008093550666C280915406823009F064C27C
:10229000E0914206F091430620818091960690914C
:1022A0009706203311F09D7FF6C09260F4C08091B4
:1022B0005406823009F050C2E0914206F091430684
:1022C00020818091960690919706203311F0877FA8
:1022D000E2C010928C0610928D0610928E0610921B
:1022E0008F06109288061092890610928A06109224
:1022F0008B068860D0C080915406823009F02CC2D1
:1023000080914206909143060E94DF056093D706B4
:102310008091710586FD1DC233CF80914206909158
:1023200043060E94DF05AB01BC0140930E045093AD
:102330000F0460931004709311048DE090E00E94EC
:10234000373A07C280915406823009F005C2E09105
:102350004206F0914306808181330CF4FDC1833342
:102360004CF0813409F0F8C180919606909197065F
:102370008F7D09C061E080530E94F0218091960614
:1023800090919706806290939706809396068BC0F3
:1023900080915406823009F0DFC1E0914206F0914D
:1023A000430620818091960690919706203311F084
:1023B0008F7E71C080616FC080915406853009F0B6
:1023C000CBC1A0904206B0904306F50120818091D8
:1023D0004406909145062033A9F4DC012C9120336A
:1023E00089F4E0914606F09147062081203351F4AC
:1023F000E0914806F09149062081203319F40E94AB
:102400006524A7C10E94DF05962EC5010E94DF0545
:10241000609353059092540585E090E00E94293A1C
:102420006091540586E090E00E94293A0E941C22A7
:1024300080914806909149060E94DF05B62E809152
:102440004606909147060E94DF0560935505B092BD
:10245000560587E090E00E94293A6091560588E091
:1024600090E00E94293A0E941C220E94562471C1C9
:1024700080915406823009F06FC1E0914206F091DC
:10248000430620818091960690919706203311F0A3
:102490008B7F01C08460909397068093960680910D
:1024A0009606909197060E94430A53C1E1818E2FB0
:1024B000EE0F990BAA0BBB0BFC01F097E732F1056D
:1024C00008F04AC1E55AFF4F0C940B378091630620
:1024D00090916406029721F080919906817004C062
:1024E00082E002C08091CA061F928F931F930F93C0
:1024F0008FE196E09F938F930E944A3781E080930B
:102500003F060F900F900F900F900F900F9021C1EA
:102510008091980683FB882780F9E6CF8091D406C6
:102520008F938091D3068F938091D6068F9380915D
:10253000D5068F930AC08091960680FD25C146E09E
:1025400080E11F928F931F924F9386E193E09F93B8
:102550008F9330C080915205882361F040915305DC
:102560008091540590E02091550530E0609156052A
:1025700070E007C040E080E090E060E070E020E0C4
:1025800030E07F936F933F932F939F938F931F928E
:102590004F9380E193E09F938F93B7C0809197060C
:1025A0008F93809196068F938091B1061F928F939F
:1025B0003F922F928FE196E09F938F930E944A372C
:1025C000AAC0809195068F5F1F928F93809190068D
:1025D0008F5F1F928F93809176068F5F1F928F93EC
:1025E000A2EFB2E03EC08FEF8F938F938F938F93C4
:1025F0008091D2068F938091D1068F938091D006DF
:102600008F938091CF068F93ABEFB2E07CC0809127
:10261000D7066ACF809151058F93809150058F9393
:1026200080914D058F9380914C058F9380914F053C
:102630008F9380914E058F93A3E1B3E012C08091F8
:10264000C5068F938091C4068F938091C3068F93A4
:102650008091C2068F938091A4061F928F93A3E06E
:10266000B3E0BF93AF938FE196E09F938F930E9467
:102670004A3751C00E94140720935D0530935E05D0
:1026800040935F0550936005609361057093620508
:102690001F927F93809161051F928F9380916005B7
:1026A0001F928F9380915F051F928F9380915E059B
:1026B0001F928F9380915D051F928F93AAE0B3E0E4
:1026C000BF93AF938FE196E09F938F930E944A3719
:1026D00022C0809111048F93809110048F93809178
:1026E0000F048F9380910E048F93809115048F9324
:1026F000809114048F93809113048F93809112041E
:102700008F93ACE1B3E0BF93AF938FE196E09F93DB
:102710008F930E944A3781E080933F060FB6F8946A
:10272000DEBF0FBECDBF15C06DE671E08FE196E054
:102730000E94FF3964E273E08FE196E00E9438372F
:1027400069E071E08FE196E00E94F43981E08093C6
:102750003F0620E030E0D3C92FEF3FEFD0C981E042
:10276000232B09F080E00E943A23CEC98064809335
:1027700071058081803309F003CDEBCF8F7E80938C
:102780009806E7CF40E033CD4AE080E5DACE12305C
:1027900009F043CA0E940D2FC0908F05D09090057C
:1027A000E0909105F0909205DC01CB018C199D0918
:1027B000AE09BF0980319742A105B10508F42DCAC1
:1027C00010928F051092900510929105109292052B
:1027D0001F921F931F9284E28F9386E293E09F9350
:1027E0008F9386E194E09F938F930E944A370E94D3
:1027F0000F21E0911D06F0911E060284F385E02D65
:1028000066E174E08DE196E009950FB6F894DEBFBD
:102810000FBECDBF02CA8B1509F483CB10925406AC
:1028200010921F0610923F061092560680E00E94FA
:102830003A236EC932E069CB28960FB6F894DEBF12
:102840000FBECDBFDF91CF911F910F91FF90EF9001
:10285000DF90CF90BF90AF909F908F907F903F90F0
:102860002F900895CF93DF93EC0164EF71E080E047
:1028700090E00E94D32E8C81882329F0813031F0A2
:102880008AEA95E005C084EB95E002C08FEA95E006
:10289000DF91CF910895CF93DF93EC014AEB52E0A3
:1028A00061E070E080E090E00E94652DEC81F0E056
:1028B000EE0FFF1FE45EFE4F6081718183E695E0BD
:1028C0000E94FF1B64EF71E080E090E00E94D32E35
:1028D0008C81811102C00E942D2280E090E0DF9166
:1028E000CF910895CF93DF93EC014AEB52E061E082
:1028F00070E080E090E00E94652DEC81F0E0EE0F4A
:10290000FF1FE45EFE4F6081718183E695E00E94C7
:10291000FF1B64EF71E080E090E00E94D32E8C8179
:10292000882319F080E196E002C082ED95E0DF9106
:10293000CF910895FC0114826FED72E080E090E089
:102940000E94AA2D60E373E081E090E00C94752D65
:10295000FC0114826BE171E080E090E00E94AA2DFE
:1029600067E373E081E090E00C94752DFC01148224
:102970006FE071E080E090E00E94AA2D67E373E0D1
:1029800081E090E00C94752D1F93CF93DF93D82FA7
:10299000C62F142F10921604411106C06AEB72E084
:1029A00086E194E00E9438376D2F70E080E090E07F
:1029B00042E00E947C05BC0186E194E00E94383729
:1029C0006BE373E086E194E00E943837113031F414
:1029D0006AEB72E086E194E00E9438376C2F70E079
:1029E00080E090E042E00E947C05BC0186E194E03A
:1029F0000E94383766E174E081E090E0DF91CF918A
:102A00001F910C94752DFC0184818F5F8C3310F421
:102A1000848301C0148241E0648180910C040C9491
:102A2000C414CF93DF93EC0164E671E080E090E0A2
:102A30000E94AA2D60910D046C8341E080910C04EA
:102A4000DF91CF910C94C414FC0184818F5F8C338F
:102A500010F4848301C0148241E0648180910C04ED
:102A60000C94C414CF93DF93EC016AE571E080E02D
:102A700090E00E94AA2D60910D046C8341E080914A
:102A80000C04DF91CF910C94C414FC0184818093D9
:102A90000C0440E060910D040E94C41464EF71E0E6
:102AA00080E090E00E94D32E80EA95E00895FC013A
:102AB00084818F5F883110F4848301C0148240E0E8
:102AC00060910D0484810C94C414CF93DF93EC01C6
:102AD00060E571E080E090E00E94AA2DE2E5F5E07B
:102AE000838180930C04648160930D048C8340E0A7
:102AF000DF91CF910C94C414FC01848180930C0469
:102B000040E060910D040E94C41464EF71E080E025
:102B100090E00E94D32E85EA95E00895FC0184811F
:102B20008F5F883110F4848301C0148240E060918B
:102B30000D0484810C94C414CF93DF93EC0165E4FD
:102B400071E080E090E00E94AA2DE2E5F5E081814D
:102B500080930C04628160930D048C8340E0DF91CC
:102B6000CF910C94C414CF92DF92EF92FF920F9307
:102B70001F93CF93DF936C01F62E142FD22FCE2DFF
:102B800010921604E11006C06AEB72E086E194E050
:102B90000E9438376F2D70E080E090E042E00E94A4
:102BA0007C05BC0186E194E00E9438376DE373E058
:102BB00086E194E00E943837C13031F46AEB72E06C
:102BC00086E194E00E943837612F70E080E090E069
:102BD00042E00E947C05BC0186E194E00E94383707
:102BE0006DE373E086E194E00E943837C23031F43F
:102BF0006AEB72E086E194E00E943837B60180E02B
:102C000090E042E00E947C05BC0186E194E00E94D5
:102C1000383764E273E086E194E00E943837C330CD
:102C200031F46AEB72E086E194E00E9438376D2F50
:102C300070E080E090E042E00E947C05BC0186E10B
:102C400094E00E9438376BE373E086E194E00E94E1
:102C50003837C43031F46AEB72E086E194E00E94C8
:102C60003837602F70E080E090E042E00E947C0501
:102C7000BC0186E194E00E94383766E174E081E0AF
:102C800090E0DF91CF911F910F91FF90EF90DF9037
:102C9000CF900C94752DEF920F93CF93DF93EC01AF
:102CA0006EE371E080E090E00E94AA2D00910D0497
:102CB0000C8384E0E82E20910C0440910B04609179
:102CC0000A0480910804909109040E94B315DF91D1
:102CD000CF910F91EF900895EF920F93FC01248113
:102CE00020930C0483E0E82E00910D0440910B0426
:102CF00060910A0480910804909109040E94B31520
:102D000064EF71E080E090E00E94D32E8EEB95E0BE
:102D10000F91EF900895EF920F93CF93DF93EC0113
:102D200069E371E080E090E00E94AA2D20910C04FC
:102D30002C8383E0E82E00910D0440910B046091F8
:102D40000A0480910804909109040E94B315DF9150
:102D5000CF910F91EF900895EF920F93FC01848132
:102D600090E0909309048093080422E0E22E009101
:102D70000D0420910C0440910B0460910A040E9400
:102D8000B31564EF71E080E090E00E94D32E83ECF5
:102D900095E00F91EF900895EF920F93FC018481DD
:102DA0008F5F8A3108F08FE08483848192E0E92E7E
:102DB00000910D0420910C0440910B0460910A04D1
:102DC00090E00E94B3150F91EF900895EF920F934A
:102DD000CF93DF93EC0164E371E080E090E00E9428
:102DE000AA2D8091080491EF980F9B3010F48C83EA
:102DF00008C08FE08C838FE090E09093090480936B
:102E000008048C8192E0E92E00910D0420910C04BD
:102E100040910B0460910A0490E00E94B315DF9189
:102E2000CF910F91EF900895EF920F93FC014481A1
:102E300040930B04EE24E39400910D0420910C04C4
:102E400060910A0480910804909109040E94B315CE
:102E500064EF71E080E090E00E94D32E88EC95E072
:102E60000F91EF900895EF920F93CF93DF93EC01C2
:102E700060E371E080E090E00E94AA2D40910B0495
:102E80004C83EE24E39400910D0420910C04609196
:102E90000A0480910804909109040E94B315DF91FF
:102EA000CF910F91EF900895EF920F93FC01648101
:102EB00060930A04E12C00910D0420910C044091D0
:102EC0000B0480910804909109040E94B31564EFEB
:102ED00071E080E090E00E94D32E8DEC95E00F91A0
:102EE000EF900895CF93DF93FC01C481FFE0CF9F63
:102EF000E001112410921604662331F06AEB72E0AF
:102F000086E194E00E944337209719F46FE373E061
:102F10002BC0CC33D10574F4BE0180E090E040E0DA
:102F20000E947C05BC0186E194E00E94383763E48E
:102F300073E01AC0CE016CE370E00E94C136EC0170
:102F400080E090E040E00E947C05BC0186E194E0D6
:102F50000E943837CD2B31F068E473E086E194E0CD
:102F60000E9438376BE473E086E194E00E943837C2
:102F700066E174E081E090E0DF91CF910C94752DD3
:102F8000CF93DF93EC0161E00E9472178C818093F4
:102F9000CA0664EF71E080E090E00E94D32E8C813D
:102FA000882319F080E090E002C086E196E0DF918E
:102FB000CF910895FC019481943010F49F5F05C077
:102FC0009C3010F49E5F01C09C5F948384818132A9
:102FD00008F0148261E09091CA068481981360E041
:102FE000CF010C947217CF93DF93EC018091CA0646
:102FF0008C8367EC72E080E090E00E94AA2D61E093
:10300000CE01DF91CF910C947217CF93DF93EC0137
:1030100010921604662331F06AEB72E086E194E0C8
:103020000E9443376C81611103C06FE373E00DC0F0
:1030300070E080E090E040E00E947C05BC0186E109
:1030400094E00E9438376FE473E086E194E00E94D8
:10305000383766E174E081E090E0DF91CF910C9425
:10306000752DCF93DF93EC0161E00E9405188C81F0
:103070008093D70664EF71E080E090E00E94D32E49
:103080008C81882319F080E090E002C086E196E010
:10309000DF91CF910895FC018481853010F48F5F1A
:1030A00001C08B5F84838481893208F0148261E0DF
:1030B0009091D7068481981360E0CF010C94051895
:1030C000CF93DF93EC018091D7068C8362ED72E0A1
:1030D00080E090E00E94AA2D61E0CE01DF91CF91C7
:1030E0000C9405180F931F93CF93DF93FC01048179
:1030F00000930D0410910C0441E0602F812F0E9479
:10310000C414C2E5D5E01B830C83612F87E090E0F7
:103110000E94293A6C8188E090E00E94293A0E943E
:103120001C2264EF71E080E090E00E94D32E86E1E3
:1031300096E0DF91CF911F910F9108950F931F9308
:10314000CF93DF93FC01048100930D0410910C04D4
:1031500041E0602F812F0E94C414C2E5D5E019839D
:103160000A83612F85E090E00E94293A6A8186E017
:1031700090E00E94293A0E941C2264EF71E080E0F6
:1031800090E00E94D32E86E196E0DF91CF911F91CF
:103190000F910895CF93DF93EC014AEB52E061E089
:1031A00070E080E090E00E94652DEC81F0E0EE0F91
:1031B000FF1FE45EFE4F6081718183E695E00E940F
:1031C000FF1B64EF71E080E090E00E94D32E8C81C1
:1031D000811103C00E94562402C00E94652486E12A
:1031E00096E0DF91CF910895CF93DF93EC018C812E
:1031F0008F5F823010F48C8301C01C820E94D52D19
:103200002C8130E081E090E040915205442311F0A0
:1032100080E090E028173907B1F44AEB52E061E012
:1032200070E080E090E00E94652DEC81F0E0EE0F10
:10323000FF1FE45EFE4F6081718183E695E0DF91C0
:10324000CF910C94FF1B220F331FF901E45EFE4F58
:103250004081518161E070E080E090E0DF91CF91AA
:103260000C94652DCF93DF93EC0181E09091520592
:10327000911180E08C836FED72E080E090E00E941D
:10328000AA2D0E94D52D4AEB52E061E070E080E06B
:1032900090E00E94652DEC81F0E0EE0FFF1FE45EF0
:1032A000FE4F6081718183E695E0DF91CF910C94B0
:1032B000FF1BCF93DF93EC018C818F5F833010F481
:1032C0008C8301C01C820E94D52DEC81F0E0EE0FB2
:1032D000FF1FEA5EFE4F4081518161E070E080E0B7
:1032E00090E0DF91CF910C94652DEF920F93CF93E7
:1032F000DF93EC018C818F5F8C3310F48C8301C0E1
:103300001C820E94D52D84E0E82E0C8120910C04B3
:1033100040910B0460910A04809108049091090483
:103320000E94B315DF91CF910F91EF900895EF9226
:103330000F93CF93DF93EC018C818F5F883110F472
:103340008C8301C01C820E94D52D83E0E82E009161
:103350000D042C8140910B0460910A0480910804B3
:10336000909109040E94B315DF91CF910F91EF90D6
:103370000895EF920F93CF93DF93EC018C818F5FD1
:10338000803208F081E08C830E94D52DEE24E394F6
:1033900000910D0420910C044C8160910A048091ED
:1033A0000804909109040E94B315DF91CF910F9109
:1033B000EF900895EF920F93CF93DF93EC018C8100
:1033C0008F5F8D3008F081E08C830E94D52DE12C39
:1033D00000910D0420910C0440910B046C818091AC
:1033E0000804909109040E94B315DF91CF910F91C9
:1033F000EF900895CF93DF93EC018C818F5F823043
:1034000010F48C8301C01C820E94D52DEC81F0E069
:10341000EE0FFF1FE45EFE4F4081518161E070E0DE
:1034200080E090E0DF91CF910C94652DCF93DF93F6
:10343000EC018C818F5F823010F48C8301C01C8280
:103440000E94D52DEC81F0E0EE0FFF1FE45EFE4FF1
:103450004081518161E070E080E090E0DF91CF91A8
:103460000C94652DAF92BF92CF92DF92EF92FF92B4
:103470000F931F93CF93DF9300D000D000D0CDB730
:10348000DEB7FC01148110930D04F0900C04B09091
:103490000B04A0900A04C0900804D090090484E0B2
:1034A000E82E012F2F2D4B2D6A2DC6010E94B3153A
:1034B000F0EDCF16F7E0DF0620F080EDC81A87E0C8
:1034C000D80AC982AA82BB82FC821D831E82CE01D9
:1034D00001960E94A10764EF71E080E090E00E94F5
:1034E000D32E80E196E026960FB6F894DEBF0FBE8D
:1034F000CDBFDF91CF911F910F91FF90EF90DF90A3
:10350000CF90BF90AF900895EF920F93CF93DF933A
:10351000EC016AE271E080E090E00E94AA2D0E9436
:10352000140720935D0530935E0540935F0550932B
:103530006005609361057093620530930A044093BF
:103540000B04822F90E09093090480930804252FA8
:1035500050930C04062F60930D043C83E12C632FE1
:103560000E94B315DF91CF910F91EF900895CF9303
:10357000DF93EC014AEB52E061E070E080E090E024
:103580000E94652DEC81F0E0EE0FFF1FE45EFE4F20
:103590006081718183E695E00E94FF1B2C81809100
:1035A000960690919706211102C08F7E01C080611E
:1035B0009093970680939606809196069091970631
:1035C0000E94430A64EF71E080E090E00E94D32EF5
:1035D00080E196E0DF91CF910895CF93DF93EC01E6
:1035E0004AEB52E061E070E080E090E00E94652DDF
:1035F000EC81F0E0EE0FFF1FE45EFE4F6081718111
:1036000083E695E00E94FF1B2C81809196069091A5
:103610009706211102C0877F11C010928C0610926C
:103620008D0610928E0610928F06109288061092C8
:10363000890610928A0610928B06886090939706EE
:103640008093960680919606909197060E94430A71
:1036500064EF71E080E090E00E94D32E80E196E07C
:10366000DF91CF910895CF93DF93EC018C818F5F31
:10367000823010F48C8301C01C820E94D52D41E061
:1036800060E083E695E00E948F08909196068C8119
:1036900094FD03C0882319F008C0882331F06AEB39
:1036A00072E083E695E00E94FF1BEC81F0E0EE0FF4
:1036B000FF1FE45EFE4F6081718183E695E0DF913C
:1036C000CF910C94FF1BCF93DF93EC018C818F5F24
:1036D000823010F48C8301C01C820E94D52D41E001
:1036E00060E083E695E00E948F08909196068C81B9
:1036F00093FD03C0882319F008C0882331F06AEBDA
:1037000072E083E695E00E94FF1BEC81F0E0EE0F93
:10371000FF1FE45EFE4F6081718183E695E0DF91DB
:10372000CF910C94FF1BCF93DF93EC016A817B81D7
:1037300080E090E00E94AA2DE0919606F091970615
:1037400084E0F695E7958A95E1F7E170EC83F0E087
:10375000EE0FFF1FE45EFE4F81818F9380818F9378
:1037600086EB92E09F938F9386E194E09F938F93F3
:103770000E944A370F900F900F900F900F900F906C
:1037800066E174E081E090E0DF91CF910C94752DBB
:10379000CF92DF92EF92FF920F931F93CF93DF931D
:1037A0006C017A018B01C0E0D0E0CE15DF0589F015
:1037B000D8016D918D01D601ED91FC910190F081C0
:1037C000E02DC6010995892B11F47E0102C02196D6
:1037D000ECCFC701DF91CF911F910F91FF90EF9038
:1037E000DF90CF9008950E94333789EA94E00E94D9
:1037F0000D2E21E0892B09F420E0822F08950C94EE
:103800002C061F920F920FB60F9211242F933F9305
:103810004F935F936F937F938F939F93AF93BF93D8
:10382000EF93FF9389EA94E00E94492EFF91EF9174
:10383000BF91AF919F918F917F916F915F914F91C8
:103840003F912F910F900FBE0F901F9018951F92D0
:103850000F920FB60F9211242F938F939F93EF9394
:10386000FF93E091B904F091BA048081E091BF0424
:10387000F091C00482FD12C090818091C2048F5FDC
:103880008F732091C304821751F0E091C204F0E0DD
:10389000E755FB4F958F8093C20401C08081FF9153
:1038A000EF919F918F912F910F900FBE0F901F90CE
:1038B0001895AF92BF92CF92DF92EF92FF920F9343
:1038C0001F93CF93DF93D82F8091710586FD9CC401
:1038D000C091A4068091960680FD03C0BB24B394DA
:1038E00002C082E0B82EA090B1060E940D2F6B019D
:1038F0007C019091A4068091A506981709F427C32E
:1039000028EEC20E23E0D21EE11CF11C8091980625
:1039100081FDD2E01F92AF921F92BF9284E391E0AB
:103920009F938F9386E194E09F938F930E944A37F1
:103930004DB75EB7485F5F4F0FB6F8945EBF0FBEDE
:103940004DBFC63009F463C1B0F4C33009F427C1D8
:1039500030F4C13049F1C23009F49BC0A5C1C43074
:1039600009F443C1C53009F09FC181E00E94202DB8
:103970006EE672E047C1C93009F475C138F4C7304A
:1039800009F439C1C83009F451C18EC1CE3F09F4E0
:1039900072C108F058C1CA3009F086C181E00E94A6
:1039A000202D61E472E03AC183E695E00E941F0A8F
:1039B00040E060E083E695E00E948F0880919806E1
:1039C00083FF09C086E00E94202D64E083E695E035
:1039D0000E94850803C082E00E94202D0E94482D8D
:1039E00086EA92E00E94562D46E154E060E070E0E5
:1039F0008AE090E00E94652D60911204709113049A
:103A0000809114049091150420E13EE040E050E0E4
:103A10000E94E9365F934F933F932F9387E693E09D
:103A20009F938F9306E114E01F930F930E944A37F0
:103A3000A80161E070E080E090E00E94652D609157
:103A40000E0470910F04809110049091110428EEDF
:103A500033E040E050E00E94E9365F934F933F939C
:103A60002F938EE693E09F938F931F930F930E9463
:103A70004A37A80161E070E087E090E00E94652D80
:103A80008DB79EB740960FB6F8949EBF0FBE8DBF00
:103A90000BC183E695E00E941F0A40E060E083E6E8
:103AA00095E00E948F088091980683FF07C064E02C
:103AB00083E695E00E94850886E001C083E00E94CD
:103AC000202D8091D706882329F063E083E695E0D6
:103AD0000E9485088091CA06882329F060E083E669
:103AE00095E00E9485080E94482D8CE992E00E9492
:103AF000562D46E154E060E070E08AE090E00E94DC
:103B0000652D6091120470911304809114049091BA
:103B1000150420E13EE040E050E00E94E9365F936A
:103B20004F933F932F9387E693E09F938F9306E104
:103B300014E01F930F930E944A37A80161E070E0E0
:103B400080E090E00E94652D60910E0470910F045A
:103B5000809110049091110428EE33E040E050E091
:103B60000E94E9365F934F933F932F938EE693E045
:103B70009F938F931F930F930E944A37A80161E090
:103B800070E087E090E00E94652D2DB73EB7205F82
:103B90003F4F0FB6F8943EBF0FBE2DBF85C086E0E5
:103BA0000E94202D83E695E00E941F0A40E060E01D
:103BB00083E695E00E948F088091D706882329F03C
:103BC00063E083E695E00E9485088091CA06882319
:103BD00029F060E083E695E00E9485080E94482D68
:103BE00083E992E00E94562D5FC081E00E94202D63
:103BF0006AE772E007C081E00E94202D67E372E06F
:103C0000D23079F488E892E00E94BC2D4DC081E06A
:103C10000E94202D62E572E0D23019F48DE592E029
:103C2000F3CF80E090E00E94AA2D3EC081E00E9488
:103C3000202DD23019F088E892E002C08DE592E0A4
:103C40006BE272E0E1CF85E00E94202D83E695E0F3
:103C50000E941F0A40E060E083E695E00E948F0822
:103C600082E292E017C081E00E94202D61E172E0C3
:103C700086E192E0C9CF85E00E94202D83E695E0A1
:103C80000E941F0A40E060E083E695E00E948F08F2
:103C900088E092E00E94562D46E154E060E070E03A
:103CA0008AE090E00E94652D8091830590918405C3
:103CB000A0918505B0918605A7019601281B390BB7
:103CC0004A0B5B0BDA01C901883E9340A105B1059F
:103CD00018F4D13009F098C2C0928305D0928405BF
:103CE000E0928505F09286058091980681FD05C0D9
:103CF0008AEF8C0F823008F42DC10E9414072093A4
:103D00005D0530935E0540935F05509360056093B9
:103D1000610570936205C33021F08091980684FF9D
:103D200061C08091710587FF44C08F7780937105D2
:103D30006091CF067091D0068091D1069091D20605
:103D4000683E53E075078105910528F128EE33E0C0
:103D500040E050E00E94E936D22F132F24E630E0F5
:103D600040E050E00E94E9363F932F931F93DF938A
:103D700086E793E09F938F9386E194E09F938F93E0
:103D80000E944A378DB79EB708960FB6F8949EBF2B
:103D90000FBE8DBF06C061E072E086E194E00E9434
:103DA000FF3946E154E060E070E08AE090E00E9474
:103DB000652DC330B9F42091CF063091D0064091E3
:103DC000D1065091D20680919606C0901204D090F0
:103DD0001304E0901404F090150480FF21C1A0EFBB
:103DE000B0E020C1CE3F09F00FC240E060E083E6C2
:103DF00095E00E948F080E94482D88E092E00E9482
:103E0000562D809162051F928F93809161051F92BC
:103E10008F93809160051F928F9387E893E09F9323
:103E20008F93C6E1D4E0DF93CF930E944A37AE016F
:103E300061E070E080E090E00E94652D4DB75EB7D4
:103E4000465F5F4F0FB6F8945EBF0FBE4DBF8091C7
:103E50005205882309F454C040E069E083E695E008
:103E60000E948F0862E083E695E00E94850860E08A
:103E700083E695E00E948508809154051F928F93F8
:103E8000809153051F928F930CE813E01F930F93BB
:103E9000DF93CF930E944A37AE0160E070E08BE081
:103EA00090E00E94652D41E069E083E695E00E9484
:103EB0008F0861E083E695E00E94850860E083E674
:103EC00095E00E948508809156051F928F938091FE
:103ED00055051F928F931F930F93DF93CF930E94EB
:103EE0004A374DB75EB7405F5F4F0FB6F8945EBF7D
:103EF0000FBE4DBFAE0161E070E08BE090E01BC0F3
:103F00001F92AF921F92BF9284E391E09F938F9391
:103F1000DF93CF930E944A372DB73EB7285F3F4FBC
:103F20000FB6F8943EBF0FBE2DBF46E154E060E0EF
:103F300070E08AE090E0DF91CF911F910F91FF90A8
:103F4000EF90DF90CF90BF90AF900C94652DD11182
:103F5000D7CCAACE6AE271E086E194E00E944337B2
:103F60008091A406863049F4C0906E06D0906F060A
:103F7000E0907006F090710608C0C0908806D0905E
:103F80008906E0908A06F0908B060E940D2F40EE85
:103F9000C40E43E9D41E44E0E41EF11CA7019601BF
:103FA000261B370B480B590BCA01B90128EE33E029
:103FB00040E050E00E94E936C90137FD25C16CE3BD
:103FC00070E00E94D5369F938F937F936F938CE818
:103FD00093E09F938F9382E394E09F938F930E944B
:103FE0004A3762E374E086E194E00E9438374DB7C7
:103FF0005EB7485F5F4F0FB6F8945EBF0FBE4DBF10
:1040000066E174E081E090E0DF91CF911F910F9124
:10401000FF90EF90DF90CF90BF90AF900C94752DF4
:10402000A8E7B0E00E94113728EE33E040E050E00E
:104030000E94E936D701C601820F931FA41FB51F46
:104040008093120490931304A0931404B093150466
:1040500060911204709113048091140490911504DE
:1040600020E13EE040E050E00E94E9365F934F934C
:104070003F932F9387E693E09F938F93C6E1D4E01D
:10408000DF93CF930E944A37AE0161E070E080E099
:1040900090E00E94652D60910E0470910F04809154
:1040A00010049091110428EE33E040E050E00E94AB
:1040B000E9365F934F933F932F938EE693E09F9360
:1040C0008F93DF93CF930E944A37AE0161E070E097
:1040D00087E090E00E94652D809146052DB73EB7A0
:1040E000205F3F4F0FB6F8943EBF0FBE2DBF80FF3D
:1040F00079C00E94D52DE0914C05F0914D05309787
:1041000071F1CF016AE070E00E94D53697FF03C0DD
:104110009195819591099F938F93CF016AE070E00B
:104120000E94D5367F936F938EE793E09F938F9392
:1041300086E194E09F938F930E944A3746E154E0D2
:1041400061E070E080E090E00E94652D4DB75EB7C1
:10415000485F5F4F0FB6F8945EBF0FBE4DBFE09152
:104160004E05F0914F05309769F1CF016AE070E09C
:104170000E94D53697FF03C09195819591099F9331
:104180008F93CF016AE070E00E94D5367F936F93E2
:104190008EE793E09F938F9386E194E09F938F93B4
:1041A0000E944A3746E154E061E070E085E090E02B
:1041B0000E94652D8DB79EB708960FB6F8949EBFE6
:1041C0000FBE8DBF80914605982F9470282F2670C2
:1041D000263029F48B7F8093460581E009C0911138
:1041E00013C002C082FD10C084608093460586E043
:1041F000DF91CF911F910F91FF90EF90DF90CF90C3
:10420000BF90AF900C94202DDF91CF911F910F9113
:10421000FF90EF90DF90CF90BF90AF900895CF9335
:10422000DF93E6E1F4E080E0EF019191992311F052
:104230008927FACF1F928F9386E993E09F938F93FC
:10424000DF93CF930E944A378DE08B831C820F90BF
:104250000F900F900F900F900F90DF91CF910895D6
:104260008091A4068E3FB9F080E090E00E94EE2B92
:104270008EEF8093A40681E00E94591C81E00E9489
:10428000AD050E940D2F6093B6067093B70680931C
:10429000B8069093B90608959C01265031092E3234
:1042A000310538F445E8489F9001499F300D1124AD
:1042B00014C09C01245331092D313105D8F4092E45
:1042C000000CAA0BBB0B80569F4FAF4FBF4F9C01FA
:1042D00085E0220F331F8A95E1F730938B002093FE
:1042E0008A0081E090E0909364068093630680E00A
:1042F00090E0089581E090E008951F93CF93DF93BD
:10430000162F2091960630919706F901E170FF274C
:1043100020FD02C090E101C090E5863038F098178A
:1043200058F08093B106C0E0D0E00AC086E08093E8
:10433000B106C1E0D0E004C09093B106C2E0D0E085
:1043400041110FC06091B106EF2B11F421E001C0C3
:1043500022E081E090E0213011F480E090E00E94C2
:10436000293A8091630690916406019729F480911F
:10437000B10690E00E944C21112319F081E00E94C7
:10438000591CCE01DF91CF911F910895CF93809159
:10439000960680FD02C0C1E001C0C2E081E090E06D
:1043A000C13011F480E090E00E94153A9FEF980F21
:1043B0009E3F20F0C13081F080E102C0863050F095
:1043C000C13021F4813150F080E108C0813530F0F6
:1043D00080E504C086E002C08CE0F4CFCF91089560
:1043E000CF93C62F2091960630919706823011F414
:1043F000216001C02E7F309397062093960680910E
:104400009606909197060E94430A0E94C6219AE060
:10441000E0E2F1E0AAE9B6E001900D929A95E1F7A9
:1044200040E060E00E947D21CC2321F081E0CF912B
:104430000C94591CCF910895CF93DF93C3E6D6E037
:104440008BA96091B106817090E00E94293A8BA9F6
:104450009CA9DF91CF910C94430A80E090E00E94E8
:10446000EE2B64EF71E081E090E00E94AA2D809134
:10447000980686FF06C068EB7BE080E090E00E9433
:10448000D32E9EE088E10FB6F894A8958093600043
:104490000FBE909360006CED75E080E090E00C94AE
:1044A000D32EBC0186EE91E00E94BC2D6CED75E030
:1044B00080E090E00C94D32ECF93C82F909171059B
:1044C000813011F49E7F01C091609093710581E06D
:1044D0000E94591C2091960630919706C11102C086
:1044E000316001C03E7F30939706209396068091FD
:1044F0009606909197060E94430A80E090E0CF9143
:104500000895CF92DF92EF92FF92CF93DF930E94B4
:104510000D2F6B017C01C1E0D2E0DD2351F0E09171
:104520008206F0918306908180918406892329F583
:10453000D0E0CC23C9F0E0918506F0918606908109
:1045400080918706892369F00E940D2FDC01CB0141
:104550008C199D09AE09BF094497A105B105E8F280
:1045600003C0C0E0D111F0CF8D2F8C2BDF91CF9104
:10457000FF90EF90DF90CF900895CC2329F3DBCF0D
:10458000AF92BF92CF92DF92EF92FF920F931F9361
:10459000CF93DF936C017B0184E6A82EB12C0FEF43
:1045A00013E0C0E0D0E087E796E00E944506C81718
:1045B000D90728F08017910718F48C0101C0EC018D
:1045C00081E0A81AB10879F780916306909164069A
:1045D000029771F020919A0630919B06909199066E
:1045E000C217D30710F09E7F01C091609093990687
:1045F000C114D10431F0F60111830083F701D18396
:10460000C083DF91CF911F910F91FF90EF90DF90CA
:10461000CF90BF90AF9008950F931F93CF93DF93E8
:104620001F92CDB7DEB7682F88E169830E94C02C46
:10463000698187E596E00E9481020E94672C62E012
:1046400088E10E947D2B10923E0480933D0487E513
:1046500096E00E942802182F002787E596E00E9426
:1046600028029801282BC9010F90DF91CF911F914B
:104670000F910895811103C08FE993E002C08CE986
:1046800093E09F938F931F9284E28F9382EA93E04B
:104690009F938F9386E194E09F938F930E944A3774
:1046A0008DB79EB708960FB6F8949EBF0FBE8DBF0C
:1046B00080913F06882361F064E273E086E194E034
:1046C0000E9438376FE176E086E194E00E94383747
:1046D000209156062223E1F0E6E1F4E0019000206B
:1046E000E9F71F922F931F922AE32F9327EA33E0D3
:1046F0003F932F93CF0101979F938F930E944A3747
:104700008DB79EB708960FB6F8949EBF0FBE8DBFAB
:104710000E940F21E0911D06F0911E060284F38590
:10472000E02D66E174E08DE196E0099580915506F3
:10473000882359F0E0911D06F0911E060084F18552
:10474000E02D6AE08DE196E009940895CF92DF9222
:10475000EF92FF928091A4068450873008F47CC0C9
:1047600080915205882309F477C00E942C2D88235C
:1047700009F472C00E940D2F6B017C0180915905D4
:1047800090915A05A0915B05B0915C05A701960137
:10479000281B390B4A0B5B0BDA01C901893E934098
:1047A000A105B10508F458C00E941407E52F209315
:1047B0005D0530935E0540935F05509360056093FF
:1047C0006105709362055093570560935805809179
:1047D00053054091540550E02CE3829F400D511D3C
:1047E0001124209155058091560590E03CE3239FCC
:1047F000800D911D1124262F30E06CE3E69F200DE3
:10480000311D11248417950798F42417350730F0CB
:104810008217930730F04217530768F028173907BB
:1048200068F48091A4068E3F79F40E94CA2C0CC0D3
:104830002417350798F72817390730F001968217A3
:10484000930710F00E943021C0925905D0925A056A
:10485000E0925B05F0925C05FF90EF90DF90CF90C7
:1048600008958091980682608093980682E00E9465
:10487000591C81E00E94AD050E94A60C8091630640
:10488000909164060297C1F360E070E080E090E0F0
:104890000E94C0228091990680FDEECF1092A4065E
:1048A000809198068D7F80939806089581E080938B
:1048B000520561E084E090E00E94293A0E941C22A7
:1048C0000E94A62381E00C94591C1092520560E0CE
:1048D00084E090E00E94293A0E941C2281E00C941E
:1048E000591C2F923F924F925F926F927F928F92BC
:1048F0009F92AF92BF92CF92DF92EF92FF920F936F
:104900001F93CF93DF93CDB7DEB760970FB6F894C0
:10491000DEBF0FBECDBF982E8FEF9FEF9A838983A6
:104920000E940D2F6B017C018091A4068F3F09F43A
:104930002FC58E3F09F04BC0BE016F5F7F4FCE0188
:1049400003960E94C0228091980686FF2DC029817F
:104950003A8180919C0690919D062817390708F5A9
:104960008091CB069091CC06A091CD06B091CE0659
:10497000893B9B40A105B105A0F08091B6069091BE
:10498000B706A091B806B091B906C81AD90AEA0AC2
:10499000FB0A38EBC3163BE0D306E104F10408F44C
:1049A000F5C40E94BD2BF2C482FFF0C460E070E049
:1049B00080E090E00E94C0228091990680FDE6C4CC
:1049C000809198068B7F809398061092A4060091A0
:1049D000A4060E948122A82E8091980686FF2CC0F2
:1049E0008091B2069091B306A091B406B091B5063D
:1049F00026013701481A590A6A0A7B0A29EE42162B
:104A000023E052066104710408F4C6C08091960642
:104A100083FD05C08A2D8370833009F4BCC4BB2498
:104A2000B39410E08091980680FFB9C08091A406ED
:104A3000833009F0B4C0CCC4073009F046C0898186
:104A40009A81019631F460E070E080E090E00E948D
:104A5000C0228091990680FD03C01092A40691C5E2
:104A600080918C0690918D06A0918E06B0918F0654
:104A700086309105A105B10510F540918806509149
:104A8000890660918A0670918B0626013701441AC7
:104A9000550A660A770A21EE421623E9520624E0F7
:104AA0006206710460F00196A11DB11D80938C0611
:104AB00090938D06A0938E06B0938F066DC087E00D
:104AC0008093A40617E0B12C6AC08091960684FDFD
:104AD00063C08A2D8370833009F456C00830A1F07A
:104AE0008091910690919206A0919306B0919406C0
:104AF000892B8A2B8B2B41F4C0929106D09292067F
:104B0000E0929306F09294068091B6069091B706D3
:104B1000A091B806B091B90626013701481A590A82
:104B20006A0A7B0A29EE421623E0520661047104E8
:104B3000A8F08091910690919206A0919306B09171
:104B4000940626013701481A590A6A0A7B0A29EE97
:104B5000421623E052066104710418F40830E1F4AF
:104B60000DC0083059F0609195066F5F6E3F30F4CC
:104B70006093950683E190E00E94293A88E0809353
:104B8000A406B12C18E00BC0109291061092920668
:104B90001092930610929406BB24B39410E0809177
:104BA0006806882309F46CC086E08093A40606306A
:104BB000F1F0609176066F5F6E3F30F46093760699
:104BC00081E190E00E94293A1092720610927306D9
:104BD0001092740610927506C0926E06D0926F06FF
:104BE000E0927006F0927106B12C16E049C060E0C8
:104BF00070E080E090E00E94C0228091990680FDE4
:104C000005C01092A4060E94032CBBC480916E06BE
:104C100090916F06A0917006B09171062601370140
:104C2000481A590A6A0A7B0A20EE421623E95206FC
:104C300024E06206710410F180917206909173066F
:104C4000A0917406B09175060196A11DB11D8093C7
:104C5000720690937306A0937406B0937506079737
:104C6000A105B10508F02CC40E94032C10926E0619
:104C700010926F06109270061092710616E0B12C19
:104C8000809196069091970692FD1AC080915005EA
:104C9000909151058E3E924074F480914C05909114
:104CA0004D05863C92403CF480914E0590914F0515
:104CB000863C92402CF08AE08093A406B12C1AE046
:104CC000A090A806BB2041F18CEF800F873038F40C
:104CD00080E090E00E94EE2B1092A40600E0BE015E
:104CE0006F5F7F4FCE0103960E94C02220919606EF
:104CF00021FD7AC38091630690916406019709F0C3
:104D000073C34B815C818091A2069091A3064817E2
:104D1000590708F033C468C390E09A1521F18091D7
:104D2000A706981749F0C092AD06D092AE06E09261
:104D3000AF06F092B00617C04091AD065091AE0696
:104D40006091AF067091B00626013701441A550AEA
:104D5000660A770AB301A2014A3F51056105710550
:104D600010F09093A8069093A7061093A606809142
:104D7000980683FF05C08091A406833009F49CC384
:104D80002091A406201709F4F6C38FEF820F833019
:104D900010F49093A806213099F50E94BD2B80E075
:104DA00090E00E94EE2B60911204709113048091A8
:104DB00014049091150420E13EE040E050E00E9490
:104DC000E93680910E0490910F04A0911004B091E7
:104DD0001104BA01A901480F591F6A1F7B1F409394
:104DE0000E0450930F0460931004709311048DE02F
:104DF00090E00E94373A1092D7061092CA066AC015
:104E0000223061F40E94BD2B8091980683FD29C059
:104E10008091B10690E00E944C215CC02330C1F427
:104E20008091B10690E00E944C218091960690916D
:104E3000970691FD48C30E94182C882309F443C3A8
:104E400089E08093A40680E090E00E94EE2B38C3B6
:104E5000243019F40E94BD2B2CC0263039F40E9456
:104E6000BD2B80E090E00E94EE2B34C02A30C1F4CC
:104E700080E090E00E94EE2B0E940D2FDC01CB0120
:104E80008C199D09AE09BF0988389341A105B10568
:104E900010F4A895F1CF0E94BD2B82E090E00BC0EA
:104EA000253071F40E94BD2B8091B10690E00E94E4
:104EB0004C2180E090E00E94EE2B0E9431240AC039
:104EC000273069F2283039F380E090E00E94EE2B21
:104ED0000E94BD2B013041F4109212041092130471
:104EE00010921404109215048091A406801304C03B
:104EF0008091A8068A1531F080E00E94AD0581E01E
:104F00000E94591CB11016C00330A1F48091B20662
:104F10009091B306A091B406B091B506C81AD90A0B
:104F2000EA0AFB0A31EDC31637E0D306E104F104C7
:104F300008F4C6C20093A5068091A406833039F414
:104F40008091D5069091D6061816190624F0809106
:104F5000980684FF40C1A8950E940D2F69877A8723
:104F60008B879C87212C312C44244A94542C320169
:104F70001D821E821F82188600E010E0812C912C79
:104F800054010E940D2FAB01BC01DB01CA01C98491
:104F9000DA84EB84FC848C199D09AE09BF098397E0
:104FA000A105B10508F0A9C088E796E04D875E87A6
:104FB0006F87788B0E9445066C01E12CF12C4D85A2
:104FC0005E856F8578898FEF4816580668067806E3
:104FD00041F191E021E0421622E0520661047104A1
:104FE0000CF490E081E031E0C31632E0D306E10436
:104FF000F1040CF480E09817A1F0DB01CA014D80A8
:105000005E806F80788484199509A609B709069790
:10501000A105B10530F00F5F1F4F4D835E836F8395
:1050200078870130110508F465C003301105A0F040
:105030000330110509F05EC0910140E050E0C50168
:10504000B4010E94E936DA01C90189019A0140E000
:1050500050E060E070E411C0C701B60172508109F0
:1050600091099B01AC010E94A536860E971EA81ED1
:10507000B91E2FEF221A320A3DC084179507A607E2
:10508000B70740F4E2E07695679557954795EA951E
:10509000D1F7F3CF80E090E0DC01411551056105C7
:1050A0007105F9F06A017B01C80ED91EEA1EFB1ECC
:1050B000B695A795979587950C151D052E053F0567
:1050C00040F00C191D092E093F09840F951FA61FDA
:1050D000B71FE2E07695679557954795EA95D1F722
:1050E000DCCF8093CB069093CC06A093CD06B093F3
:1050F000CE060CC02601370144CF1092CB06109289
:10510000CC061092CD061092CE06A8950091CB0643
:105110001091CC062091CD063091CE0660913C04D2
:10512000611108C0109238041092390410923A04A8
:1051300010923B048091380490913904A0913A0474
:10514000B0913B04080F191F2A1F3B1F009338041E
:105150001093390420933A0430933B0481E0860F86
:1051600080933C048032B9F510923C04A901980167
:1051700085E056954795379527958A95D1F7A09163
:10518000D506B091D6060E941C370091D306109127
:10519000D406012E000C220B330BDC01CB01801B4B
:1051A000910BA20BB30BB7FD09C08093CF06909370
:1051B000D006A093D106B093D20608C01092CF06B5
:1051C0001092D0061092D1061092D20680917105ED
:1051D0008068809371058091A406833009F0D1C165
:1051E0008091C2069091C306A091C406B091C506F5
:1051F0008093C6069093C706A093C806B093C906CD
:105200000E9479060091BA061091BB062091BC0657
:105210003091BD06DC01CB01801B910BA20BB30BBF
:105220008093C2069093C306A093C406B093C506AC
:10523000209196063091970632FD55C00091C60622
:105240001091C7062091C8063091C90680179107B2
:10525000A207B30709F447C00E94C62190914605F2
:10526000209150053091510590FD16C02A3842E03A
:1052700034070CF04EC140914C0550914D054A3811
:1052800052400CF046C140914E0550914F054A38AE
:1052900052400CF03EC140C1293542E034070CF0C9
:1052A0003BC140914C0550914D054D3652400CF09C
:1052B00033C140914E0550914F054D3652400CF090
:1052C0002BC19E7F9093460541E060E00E947D21C6
:1052D0008091630690916406019729F08091B10650
:1052E00090E00E944C21A091D706AA23F9F0B0E0EB
:1052F00020E83EEE46E350E00E9411370091120490
:105300001091130420911404309115040617170707
:105310002807390758F01092D7061092CA068091D4
:1053200098068460809398060E9430218091CA0676
:10533000882309F426C10E940D2F0091B206109116
:10534000B3062091B4063091B5066B017C01C01AFA
:10535000D10AE20AF30AA091CA06B0E020EA3BEBC8
:105360004DE050E00E941137C616D706E806F90650
:1053700008F407C11092CA061092D70680919806C9
:105380008460809398060E943021FBC08091A4061F
:105390008093A506F6C087E08093A4060E94BD2BEB
:1053A000073059F0609190066F5F6E3F30F4609364
:1053B000900682E190E00E94293AC0928806D0923D
:1053C0008906E0928A06F0928B06B12C17E02ACB70
:1053D000A11004C061E082E00E94F0218091980653
:1053E0008E7F80939806DBCB89819A8140919A06C3
:1053F00050919B068417950750F540919C0650915B
:105400009D0684179507D0F440919E0650919F0603
:105410008417950740F08091630690916406019788
:1054200081F093E00CC04091A0065091A10648176E
:10543000590750F494E022FF0FC004C092E012E03C
:1054400008C093E013E005C090E010E002C091E0D6
:1054500011E0101302C061CC14E08091A606181769
:1054600049F0C092A906D092AA06E092AB06F0924B
:10547000AC0653CC4091A9065091AA066091AB06A8
:105480007091AC0626013701441A550A660A770A5C
:10549000113029F04AEF50E060E070E004C049E1CB
:1054A00050E060E070E0441655066606770608F4A2
:1054B00034CC1093A40631CC82E08093A40660CC57
:1054C0000E9431245EC089E796E00E94630B8CE75E
:1054D00096E00E94630B8FE796E00E94630B809139
:1054E00098068064809398060E9479066093BA06B5
:1054F0007093BB068093BC069093BD060E940D2F4F
:105500006093B2067093B3068093B4069093B50689
:10551000E1CC86959160D6CE91FF17C02B383240F2
:105520000CF0E1CE20914C0530914D052B383240E6
:105530000CF0D9CE20914E0530914F052B383240DA
:105540000CF0D1CE86959D7FBDCE2C3B32407CF4B5
:1055500020914C0530914D05283A324044F4209179
:105560004E0530914F05283A32400CF4BCCE86955A
:1055700086959260A7CE91100ECCB6CC95E015E042
:105580006CCF60960FB6F894DEBF0FBECDBFDF9133
:10559000CF911F910F91FF90EF90DF90CF90BF9030
:1055A000AF909F908F907F906F905F904F903F90C3
:1055B0002F9008958F929F92AF92BF92CF92DF92D9
:1055C000EF92FF920F931F93CF93DF93CDB7DEB788
:1055D000A1970FB6F894DEBF0FBECDBF6B017C0163
:1055E00097FF33C0E0916305F09164050190F0816D
:1055F000E02D6DE283E695E009958C0122273327A3
:10560000A9012C193D094E095F0919A2CE01819605
:105610007C019AE0892E912CA12CB12CCA01B901F0
:10562000A50194010E94E936605DF70162937F0154
:10563000211531054105510589F7BF0183E695E044
:105640000E942C06800F911F1FC09B01AC0119A264
:105650008E010F5D1F4F8AE0C82ED12CE12CF12C5A
:10566000CA01B901A70196010E94E936605DF801FF
:1056700062938F01211531054105510589F7BF015D
:1056800083E695E00E942C06A1960FB6F894DEBF43
:105690000FBECDBFDF91CF911F910F91FF90EF9083
:1056A000DF90CF90BF90AF909F908F900895CF9351
:1056B000DF93C82F48E050E086E194E00E94EB3988
:1056C00080916E058823B1F0C77088E0C89FB00153
:1056D0001124606440E083E695E00E943C08C6E146
:1056E000D4E0699183E695E00E94850884E0CE319C
:1056F000D807B9F7DF91CF9108959091A80491113F
:10570000FCCF91E09093A8049093A7042FEF2093EF
:10571000A6041092A504260F2093A4049093A3043A
:105720009091A304880F892B8093A3048091A204F5
:10573000813041F41092A2048091A3048093BB00B5
:1057400085EC01C085EE8093BC008091A804813077
:10575000E1F38091A504861710F46091A504A2E8F6
:10576000B4E022E634E0F9018E2F821B861718F48C
:105770008D918193F9CF862F089560E089E796E0B7
:105780000E946D0B60E08CE796E00E946D0B60E07C
:105790008FE796E00E946D0BE3E6F6E085A98F7B2C
:1057A00085AB0E9479066093BE067093BF06809316
:1057B000C0069093C1060E940D2F6093B6067093A9
:1057C000B7068093B8069093B9061092CF06109250
:1057D000D0061092D1061092D20608952FB7F894F1
:1057E000009739F440E45FE150938B0040938A00C6
:1057F00004C010928B0010928A00909364068093EC
:1058000063062FBF0895A89510926A061092690644
:10581000E0916506F0916606908180916706892384
:1058200021F081E08093680608951092680608953B
:10583000EF92FF920F931F93CF93DF9381E08093BA
:105840006A0610926906CDE3D0E00FE212E883E326
:10585000E82E82E8F82E80916906811112C0219706
:1058600081F08BE696E00E94630BC8010197F1F787
:1058700060E08BE696E00E946D0BC7010197F1F79F
:10588000EACF62E370E080E090E00E94D32EA8951A
:10589000E0916506F0916606908180916706892304
:1058A00081F768EE73E080E090E00E94D32E1092C2
:1058B000680610926A0681E090916906911180E075
:1058C000DF91CF911F910F91FF90EF90089520915C
:1058D00061049091D806213208F046C08091A80456
:1058E0008111FCCF32E03093A80431E03093A7045B
:1058F0003FEF3093A6041092A5042093A404A1E4E2
:10590000B4E042E854E0FA013E2F341B321718F499
:105910003D913193F9CF1092A3042091A304990FE4
:10592000922B9093A3049091A204913041F4109291
:10593000A2049091A3049093BB0095EC01C095EE56
:105940009093BC009091A8049230E1F39091A6044A
:105950009F3F79F08091A604803241F08091A604A7
:10596000803331F084E005C081E003C082E001C0F3
:1059700083E0109240041092610410923F04089555
:1059800091E090933F048093D806109240041092C7
:10599000610408958091A4068E5F823070F4809136
:1059A00098068B7F809398068FEF8093A5061092C0
:1059B000A40680E090E00C94EE2B0895CF93DF9343
:1059C00090916D05992311F097E0892780FD03C020
:1059D00020EC31E002C020E831E0309370052093E4
:1059E0006F0581FF09C020916F05309170052F77F9
:1059F0003093700520936F0582FF09C080916F0579
:105A0000909170059E7F9093700580936F05D09163
:105A10006F05C091700580916C0580620E94C02C5A
:105A200082E10E941D088D2F0E941D088C2F0E946C
:105A30001D080E94672C8111FCCFDF91CF91089542
:105A40009091710590FF02C0811187E090916E05E1
:105A500091110C94DE2C08952091530590915505D9
:105A600021110AC080915405811106C0911104C012
:105A700080915605882359F081E0291308C02091B0
:105A8000540590915605291302C080E008950895A9
:105A900080915205882349F00E942C2D882329F0FB
:105AA00060E083E695E00C948508089540E150E0BD
:105AB000BC0182E795E00E94063A1092820562E7F7
:105AC00075E083E695E00C94FF1BCF93DF93EA012A
:105AD000462F682F83E695E00E948F08BE0183E67B
